:1000000000308A006E280000FF00030E8301A1006B
:100010007F08A0000A08A7008A01A00E0408A20019
:100020007708A3007808A4007908A5007A08A6003C
:10003000831383128C308400001C20280C1837286E
:100040008C308400801C26288C18472822088400C5
:100050002308F7002408F8002508F9002608FA000C
:1000600027088A00210E8300FF0E7F0E09008316E9
:100070000511831205111830F700F70B3D284028B1
:1000800083168511831285150C108A112628831674
:100090008511831285111830F700F70B4D28502871
:1000A00083160511831205157608253C031D5A2871
:1000B000F6015B28F60A0310760D283E84008313B0
:1000C000840A0008FC0084030008FB008E017C0801
:1000D0008F007B088E008C108A11262803081F3998
:1000E000830007309F0083139D30A800FD30A900D6
:1000F0008E30AA00FD30AB006B30AC00FD30AD009F
:100100002130AE00FD30AF00D830B000FC30B1007F
:100110008C30B200FC30B3006B30B400FC30B50062
:100120004530B600FC30B7004230B800FC30B900B2
:100130003730BA00FC30BB004230BC00FC30BD00A0
:100140004530BE00FC30BF006B30C000FC30C10049
:100150008C30C200FC30C300D830C400FC30C50075
:100160002130C600FD30C7006B30C800FD30C9002B
:100170008E30CA00FD30CB009D30CC00FD30CD006C
:100180004830CE00FE30CF006B30D000FE30D100C2
:10019000B830D200FE30D300DC30D400FE30D500C1
:1001A0002330D600FF30D7003F30D800FF30D900D1
:1001B0006A30DA00FF30DB009230DC00FF30DD0017
:1001C0009E30DE00FF30DF00A930E000FF30E100AC
:1001D0009E30E200FF30E3009230E400FF30E500A3
:1001E0006A30E600FF30E7003F30E800FF30E9000A
:1001F0002330EA00FF30EB00DC30EC00FE30ED0095
:10020000B830EE00FE30EF006B30F000FE30F10051
:100210004830F200FE30F3004930F400FE30F500C3
:100220000330831685000130860005118312051105
:100230009530900083160C14C03083128B0400306C
:10024000F800063892008830831692008C14C03073
:0802500083128B042A296300CC
:02400E00623F0F
:00000001FF
;PIC16F628A
;CRC=3FAE  CREATED="06-ene.-18 10:05"
